{
  "_format": "hh-sol-artifact-1",
  "contractName": "CarbonTracking",
  "sourceName": "contracts/CarbonTracking.sol",
  "abi": [
    {
      "anonymous": false,
      "inputs": [
        {
          "indexed": true,
          "internalType": "address",
          "name": "user",
          "type": "address"
        },
        {
          "indexed": false,
          "internalType": "uint256",
          "name": "amount",
          "type": "uint256"
        },
        {
          "indexed": false,
          "internalType": "uint256",
          "name": "timestamp",
          "type": "uint256"
        },
        {
          "indexed": false,
          "internalType": "string",
          "name": "companyName",
          "type": "string"
        },
        {
          "indexed": false,
          "internalType": "bytes32",
          "name": "transactionHash",
          "type": "bytes32"
        }
      ],
      "name": "CarbonDeposited",
      "type": "event"
    },
    {
      "anonymous": false,
      "inputs": [
        {
          "indexed": true,
          "internalType": "address",
          "name": "user",
          "type": "address"
        },
        {
          "indexed": false,
          "internalType": "string",
          "name": "companyName",
          "type": "string"
        }
      ],
      "name": "CompanyRegistered",
      "type": "event"
    },
    {
      "inputs": [
        {
          "internalType": "address",
          "name": "",
          "type": "address"
        }
      ],
      "name": "companies",
      "outputs": [
        {
          "internalType": "string",
          "name": "name",
          "type": "string"
        },
        {
          "internalType": "bool",
          "name": "isRegistered",
          "type": "bool"
        },
        {
          "internalType": "uint256",
          "name": "totalCarbon",
          "type": "uint256"
        }
      ],
      "stateMutability": "view",
      "type": "function"
    },
    {
      "inputs": [
        {
          "internalType": "uint256[]",
          "name": "amounts",
          "type": "uint256[]"
        }
      ],
      "name": "depositCarbon",
      "outputs": [
        {
          "internalType": "bytes32",
          "name": "",
          "type": "bytes32"
        }
      ],
      "stateMutability": "nonpayable",
      "type": "function"
    },
    {
      "inputs": [
        {
          "internalType": "uint256",
          "name": "",
          "type": "uint256"
        }
      ],
      "name": "entries",
      "outputs": [
        {
          "internalType": "uint256",
          "name": "id",
          "type": "uint256"
        },
        {
          "internalType": "address",
          "name": "user",
          "type": "address"
        },
        {
          "internalType": "uint256",
          "name": "amount",
          "type": "uint256"
        },
        {
          "internalType": "uint256",
          "name": "timestamp",
          "type": "uint256"
        },
        {
          "internalType": "string",
          "name": "companyName",
          "type": "string"
        },
        {
          "internalType": "bytes32",
          "name": "transactionHash",
          "type": "bytes32"
        }
      ],
      "stateMutability": "view",
      "type": "function"
    },
    {
      "inputs": [
        {
          "internalType": "address",
          "name": "companyAddress",
          "type": "address"
        }
      ],
      "name": "getCompanyDetails",
      "outputs": [
        {
          "components": [
            {
              "internalType": "string",
              "name": "name",
              "type": "string"
            },
            {
              "internalType": "bool",
              "name": "isRegistered",
              "type": "bool"
            },
            {
              "internalType": "uint256",
              "name": "totalCarbon",
              "type": "uint256"
            }
          ],
          "internalType": "struct CarbonTracking.Company",
          "name": "",
          "type": "tuple"
        }
      ],
      "stateMutability": "view",
      "type": "function"
    },
    {
      "inputs": [
        {
          "internalType": "address",
          "name": "companyAddress",
          "type": "address"
        }
      ],
      "name": "getCompanyName",
      "outputs": [
        {
          "internalType": "string",
          "name": "",
          "type": "string"
        }
      ],
      "stateMutability": "view",
      "type": "function"
    },
    {
      "inputs": [],
      "name": "getEntries",
      "outputs": [
        {
          "components": [
            {
              "internalType": "uint256",
              "name": "id",
              "type": "uint256"
            },
            {
              "internalType": "address",
              "name": "user",
              "type": "address"
            },
            {
              "internalType": "uint256",
              "name": "amount",
              "type": "uint256"
            },
            {
              "internalType": "uint256",
              "name": "timestamp",
              "type": "uint256"
            },
            {
              "internalType": "string",
              "name": "companyName",
              "type": "string"
            },
            {
              "internalType": "bytes32",
              "name": "transactionHash",
              "type": "bytes32"
            }
          ],
          "internalType": "struct CarbonTracking.CarbonEntry[]",
          "name": "",
          "type": "tuple[]"
        }
      ],
      "stateMutability": "view",
      "type": "function"
    },
    {
      "inputs": [
        {
          "internalType": "address",
          "name": "companyAddress",
          "type": "address"
        }
      ],
      "name": "isCompanyRegistered",
      "outputs": [
        {
          "internalType": "bool",
          "name": "",
          "type": "bool"
        }
      ],
      "stateMutability": "view",
      "type": "function"
    },
    {
      "inputs": [],
      "name": "nextId",
      "outputs": [
        {
          "internalType": "uint256",
          "name": "",
          "type": "uint256"
        }
      ],
      "stateMutability": "view",
      "type": "function"
    },
    {
      "inputs": [
        {
          "internalType": "string",
          "name": "companyName",
          "type": "string"
        }
      ],
      "name": "registerCompany",
      "outputs": [],
      "stateMutability": "nonpayable",
      "type": "function"
    },
    {
      "inputs": [
        {
          "internalType": "uint256",
          "name": "",
          "type": "uint256"
        }
      ],
      "name": "registeredCompanies",
      "outputs": [
        {
          "internalType": "address",
          "name": "",
          "type": "address"
        }
      ],
      "stateMutability": "view",
      "type": "function"
    }
  ],
  "bytecode": "0x608060405234801561001057600080fd5b5061111e806100206000396000f3fe608060405234801561001057600080fd5b506004361061009d5760003560e01c80635e96b80d116100665780635e96b80d1461015657806361b8ce8c14610181578063a4ef703114610198578063b30906d4146101b8578063b8da367b146101dd57600080fd5b8062544194146100a25780630558d3e9146100b757806317be85c3146100e0578063355e6ce8146100f557806356ea04a314610117575b600080fd5b6100b56100b0366004610b8c565b6101f0565b005b6100ca6100c5366004610c21565b610389565b6040516100d79190610c97565b60405180910390f35b6100e8610483565b6040516100d79190610cd5565b610108610103366004610c21565b6105b3565b6040516100d793929190610d82565b610146610125366004610c21565b6001600160a01b031660009081526002602052604090206001015460ff1690565b60405190151581526020016100d7565b610169610164366004610da7565b610661565b6040516001600160a01b0390911681526020016100d7565b61018a60015481565b6040519081526020016100d7565b6101ab6101a6366004610c21565b61068b565b6040516100d79190610dc0565b6101cb6101c6366004610da7565b61079a565b6040516100d796959493929190610dd3565b61018a6101eb366004610e19565b610877565b3360009081526002602052604090206001015460ff16156102585760405162461bcd60e51b815260206004820152601a60248201527f436f6d70616e7920616c7265616479207265676973746572656400000000000060448201526064015b60405180910390fd5b60008151116102a95760405162461bcd60e51b815260206004820152601c60248201527f436f6d70616e79206e616d652063616e6e6f7420626520656d70747900000000604482015260640161024f565b6040805160608101825282815260016020808301919091526000828401819052338152600290915291909120815181906102e39082610f48565b5060208201516001828101805460ff1916921515929092179091556040928301516002909201919091556003805491820181556000527fc2575a0e9e593c00f959f8c92f12db2869c3395a3b0502d05e2516446f71f85b018054336001600160a01b0319909116811790915590517f76686aa361308f4a08557cca1a847299ce61e5602a3495cd359a599a1dca438c9061037e908490610dc0565b60405180910390a250565b6103af604051806060016040528060608152602001600015158152602001600081525090565b6001600160a01b038216600090815260026020526040908190208151606081019092528054829082906103e190610ebf565b80601f016020809104026020016040519081016040528092919081815260200182805461040d90610ebf565b801561045a5780601f1061042f5761010080835404028352916020019161045a565b820191906000526020600020905b81548152906001019060200180831161043d57829003601f168201915b5050509183525050600182015460ff161515602082015260029091015460409091015292915050565b60606000805480602002602001604051908101604052809291908181526020016000905b828210156105aa5760008481526020908190206040805160c081018252600686029092018054835260018101546001600160a01b0316938301939093526002830154908201526003820154606082015260048201805491929160808401919061050f90610ebf565b80601f016020809104026020016040519081016040528092919081815260200182805461053b90610ebf565b80156105885780601f1061055d57610100808354040283529160200191610588565b820191906000526020600020905b81548152906001019060200180831161056b57829003601f168201915b50505050508152602001600582015481525050815260200190600101906104a7565b50505050905090565b6002602052600090815260409020805481906105ce90610ebf565b80601f01602080910402602001604051908101604052809291908181526020018280546105fa90610ebf565b80156106475780601f1061061c57610100808354040283529160200191610647565b820191906000526020600020905b81548152906001019060200180831161062a57829003601f168201915b505050506001830154600290930154919260ff1691905083565b6003818154811061067157600080fd5b6000918252602090912001546001600160a01b0316905081565b6001600160a01b03811660009081526002602052604090206001015460609060ff166106f25760405162461bcd60e51b815260206004820152601660248201527510dbdb5c185b9e481b9bdd081c9959da5cdd195c995960521b604482015260640161024f565b6001600160a01b0382166000908152600260205260409020805461071590610ebf565b80601f016020809104026020016040519081016040528092919081815260200182805461074190610ebf565b801561078e5780601f106107635761010080835404028352916020019161078e565b820191906000526020600020905b81548152906001019060200180831161077157829003601f168201915b50505050509050919050565b600081815481106107aa57600080fd5b6000918252602090912060069091020180546001820154600283015460038401546004850180549496506001600160a01b039093169491939092906107ee90610ebf565b80601f016020809104026020016040519081016040528092919081815260200182805461081a90610ebf565b80156108675780601f1061083c57610100808354040283529160200191610867565b820191906000526020600020905b81548152906001019060200180831161084a57829003601f168201915b5050505050908060050154905086565b3360009081526002602052604081206001015460ff166108d25760405162461bcd60e51b815260206004820152601660248201527510dbdb5c185b9e481b9bdd081c9959da5cdd195c995960521b604482015260640161024f565b33600090815260026020526040812080546108ec90610ebf565b80601f016020809104026020016040519081016040528092919081815260200182805461091890610ebf565b80156109655780601f1061093a57610100808354040283529160200191610965565b820191906000526020600020905b81548152906001019060200180831161094857829003601f168201915b50505050509050600033844260405160200161098393929190611008565b60405160208183030381529060405280519060200120905060005b8451811015610af55760006040518060c001604052806001548152602001336001600160a01b031681526020018784815181106109dd576109dd61105a565b602090810291909101810151825242828201526040808301889052606092830187905284546001808201875560009687529583902085516006909202019081559184015194820180546001600160a01b0319166001600160a01b0390961695909517909455928201516002840155810151600383015560808101519091906004820190610a6a9082610f48565b5060a082015181600501555050848181518110610a8957610a8961105a565b602002602001015160026000336001600160a01b03166001600160a01b031681526020019081526020016000206002016000828254610ac89190611086565b909155505060018054906000610add8361109f565b91905055508080610aed9061109f565b91505061099e565b50336001600160a01b03167f930c1b0e18678d72b5d86a48f54e4f020fb3ddc5a0fc2d64887c09399f5dc8a88551428585604051610b3694939291906110b8565b60405180910390a29392505050565b634e487b7160e01b600052604160045260246000fd5b604051601f8201601f1916810167ffffffffffffffff81118282101715610b8457610b84610b45565b604052919050565b60006020808385031215610b9f57600080fd5b823567ffffffffffffffff80821115610bb757600080fd5b818501915085601f830112610bcb57600080fd5b813581811115610bdd57610bdd610b45565b610bef601f8201601f19168501610b5b565b91508082528684828501011115610c0557600080fd5b8084840185840137600090820190930192909252509392505050565b600060208284031215610c3357600080fd5b81356001600160a01b0381168114610c4a57600080fd5b9392505050565b6000815180845260005b81811015610c7757602081850181015186830182015201610c5b565b506000602082860101526020601f19601f83011685010191505092915050565b602081526000825160606020840152610cb36080840182610c51565b9050602084015115156040840152604084015160608401528091505092915050565b60006020808301818452808551808352604092508286019150828160051b87010184880160005b83811015610d7457888303603f19018552815180518452878101516001600160a01b03168885015286810151878501526060808201519085015260808082015160c08287018190529190610d5283880182610c51565b60a0948501519790940196909652505094870194925090860190600101610cfc565b509098975050505050505050565b606081526000610d956060830186610c51565b93151560208301525060400152919050565b600060208284031215610db957600080fd5b5035919050565b602081526000610c4a6020830184610c51565b86815260018060a01b038616602082015284604082015283606082015260c060808201526000610e0660c0830185610c51565b90508260a0830152979650505050505050565b60006020808385031215610e2c57600080fd5b823567ffffffffffffffff80821115610e4457600080fd5b818501915085601f830112610e5857600080fd5b813581811115610e6a57610e6a610b45565b8060051b9150610e7b848301610b5b565b8181529183018401918481019088841115610e9557600080fd5b938501935b83851015610eb357843582529385019390850190610e9a565b98975050505050505050565b600181811c90821680610ed357607f821691505b602082108103610ef357634e487b7160e01b600052602260045260246000fd5b50919050565b601f821115610f4357600081815260208120601f850160051c81016020861015610f205750805b601f850160051c820191505b81811015610f3f57828155600101610f2c565b5050505b505050565b815167ffffffffffffffff811115610f6257610f62610b45565b610f7681610f708454610ebf565b84610ef9565b602080601f831160018114610fab5760008415610f935750858301515b600019600386901b1c1916600185901b178555610f3f565b600085815260208120601f198616915b82811015610fda57888601518255948401946001909101908401610fbb565b5085821015610ff85787850151600019600388901b60f8161c191681555b5050505050600190811b01905550565b6bffffffffffffffffffffffff198460601b1681526000601482018451602080870160005b838110156110495781518552938201939082019060010161102d565b505094825250909201949350505050565b634e487b7160e01b600052603260045260246000fd5b634e487b7160e01b600052601160045260246000fd5b8082018082111561109957611099611070565b92915050565b6000600182016110b1576110b1611070565b5060010190565b8481528360208201526080604082015260006110d76080830185610c51565b90508260608301529594505050505056fea2646970667358221220f3e9555635abe44fb84f7e85fff6317f8cac461cfcf9cda435bb31fb95d1825964736f6c63430008110033",
  "linkReferences": {},
  "deployedLinkReferences": {}
}