{
  "_format": "hh-sol-artifact-1",
  "contractName": "CarbonTracking",
  "sourceName": "contracts/CarbonTracking.sol",
  "abi": [
    {
      "anonymous": false,
      "inputs": [
        {
          "indexed": true,
          "internalType": "address",
          "name": "user",
          "type": "address"
        },
        {
          "indexed": false,
          "internalType": "uint256",
          "name": "amount",
          "type": "uint256"
        },
        {
          "indexed": false,
          "internalType": "uint256",
          "name": "timestamp",
          "type": "uint256"
        },
        {
          "indexed": false,
          "internalType": "string",
          "name": "companyName",
          "type": "string"
        }
      ],
      "name": "CarbonDeposited",
      "type": "event"
    },
    {
      "anonymous": false,
      "inputs": [
        {
          "indexed": true,
          "internalType": "address",
          "name": "user",
          "type": "address"
        },
        {
          "indexed": false,
          "internalType": "string",
          "name": "companyName",
          "type": "string"
        }
      ],
      "name": "CompanyRegistered",
      "type": "event"
    },
    {
      "inputs": [
        {
          "internalType": "address",
          "name": "",
          "type": "address"
        }
      ],
      "name": "companies",
      "outputs": [
        {
          "internalType": "string",
          "name": "name",
          "type": "string"
        },
        {
          "internalType": "bool",
          "name": "isRegistered",
          "type": "bool"
        },
        {
          "internalType": "uint256",
          "name": "totalCarbon",
          "type": "uint256"
        }
      ],
      "stateMutability": "view",
      "type": "function"
    },
    {
      "inputs": [
        {
          "internalType": "uint256[]",
          "name": "amounts",
          "type": "uint256[]"
        }
      ],
      "name": "depositCarbon",
      "outputs": [
        {
          "internalType": "bytes32",
          "name": "",
          "type": "bytes32"
        }
      ],
      "stateMutability": "nonpayable",
      "type": "function"
    },
    {
      "inputs": [
        {
          "internalType": "uint256",
          "name": "",
          "type": "uint256"
        }
      ],
      "name": "entries",
      "outputs": [
        {
          "internalType": "uint256",
          "name": "id",
          "type": "uint256"
        },
        {
          "internalType": "address",
          "name": "user",
          "type": "address"
        },
        {
          "internalType": "uint256",
          "name": "amount",
          "type": "uint256"
        },
        {
          "internalType": "uint256",
          "name": "timestamp",
          "type": "uint256"
        },
        {
          "internalType": "string",
          "name": "companyName",
          "type": "string"
        }
      ],
      "stateMutability": "view",
      "type": "function"
    },
    {
      "inputs": [
        {
          "internalType": "address",
          "name": "companyAddress",
          "type": "address"
        }
      ],
      "name": "getCompanyDetails",
      "outputs": [
        {
          "components": [
            {
              "internalType": "string",
              "name": "name",
              "type": "string"
            },
            {
              "internalType": "bool",
              "name": "isRegistered",
              "type": "bool"
            },
            {
              "internalType": "uint256",
              "name": "totalCarbon",
              "type": "uint256"
            }
          ],
          "internalType": "struct CarbonTracking.Company",
          "name": "",
          "type": "tuple"
        }
      ],
      "stateMutability": "view",
      "type": "function"
    },
    {
      "inputs": [
        {
          "internalType": "address",
          "name": "companyAddress",
          "type": "address"
        }
      ],
      "name": "getCompanyName",
      "outputs": [
        {
          "internalType": "string",
          "name": "",
          "type": "string"
        }
      ],
      "stateMutability": "view",
      "type": "function"
    },
    {
      "inputs": [],
      "name": "getEntries",
      "outputs": [
        {
          "components": [
            {
              "internalType": "uint256",
              "name": "id",
              "type": "uint256"
            },
            {
              "internalType": "address",
              "name": "user",
              "type": "address"
            },
            {
              "internalType": "uint256",
              "name": "amount",
              "type": "uint256"
            },
            {
              "internalType": "uint256",
              "name": "timestamp",
              "type": "uint256"
            },
            {
              "internalType": "string",
              "name": "companyName",
              "type": "string"
            }
          ],
          "internalType": "struct CarbonTracking.CarbonEntry[]",
          "name": "",
          "type": "tuple[]"
        }
      ],
      "stateMutability": "view",
      "type": "function"
    },
    {
      "inputs": [
        {
          "internalType": "address",
          "name": "companyAddress",
          "type": "address"
        }
      ],
      "name": "isCompanyRegistered",
      "outputs": [
        {
          "internalType": "bool",
          "name": "",
          "type": "bool"
        }
      ],
      "stateMutability": "view",
      "type": "function"
    },
    {
      "inputs": [],
      "name": "nextId",
      "outputs": [
        {
          "internalType": "uint256",
          "name": "",
          "type": "uint256"
        }
      ],
      "stateMutability": "view",
      "type": "function"
    },
    {
      "inputs": [
        {
          "internalType": "string",
          "name": "companyName",
          "type": "string"
        }
      ],
      "name": "registerCompany",
      "outputs": [],
      "stateMutability": "nonpayable",
      "type": "function"
    },
    {
      "inputs": [
        {
          "internalType": "uint256",
          "name": "",
          "type": "uint256"
        }
      ],
      "name": "registeredCompanies",
      "outputs": [
        {
          "internalType": "address",
          "name": "",
          "type": "address"
        }
      ],
      "stateMutability": "view",
      "type": "function"
    }
  ],
  "bytecode": "0x608060405234801561001057600080fd5b506110d8806100206000396000f3fe608060405234801561001057600080fd5b506004361061009d5760003560e01c80635e96b80d116100665780635e96b80d1461015657806361b8ce8c14610181578063a4ef703114610198578063b30906d4146101b8578063b8da367b146101dc57600080fd5b8062544194146100a25780630558d3e9146100b757806317be85c3146100e0578063355e6ce8146100f557806356ea04a314610117575b600080fd5b6100b56100b0366004610b65565b6101ef565b005b6100ca6100c5366004610bfa565b610388565b6040516100d79190610c70565b60405180910390f35b6100e8610482565b6040516100d79190610cae565b610108610103366004610bfa565b6105a8565b6040516100d793929190610d4c565b610146610125366004610bfa565b6001600160a01b031660009081526002602052604090206001015460ff1690565b60405190151581526020016100d7565b610169610164366004610d71565b610656565b6040516001600160a01b0390911681526020016100d7565b61018a60015481565b6040519081526020016100d7565b6101ab6101a6366004610bfa565b610680565b6040516100d79190610d8a565b6101cb6101c6366004610d71565b61078f565b6040516100d7959493929190610d9d565b61018a6101ea366004610ddb565b610866565b3360009081526002602052604090206001015460ff16156102575760405162461bcd60e51b815260206004820152601a60248201527f436f6d70616e7920616c7265616479207265676973746572656400000000000060448201526064015b60405180910390fd5b60008151116102a85760405162461bcd60e51b815260206004820152601c60248201527f436f6d70616e79206e616d652063616e6e6f7420626520656d70747900000000604482015260640161024e565b6040805160608101825282815260016020808301919091526000828401819052338152600290915291909120815181906102e29082610f0a565b5060208201516001828101805460ff1916921515929092179091556040928301516002909201919091556003805491820181556000527fc2575a0e9e593c00f959f8c92f12db2869c3395a3b0502d05e2516446f71f85b018054336001600160a01b0319909116811790915590517f76686aa361308f4a08557cca1a847299ce61e5602a3495cd359a599a1dca438c9061037d908490610d8a565b60405180910390a250565b6103ae604051806060016040528060608152602001600015158152602001600081525090565b6001600160a01b038216600090815260026020526040908190208151606081019092528054829082906103e090610e81565b80601f016020809104026020016040519081016040528092919081815260200182805461040c90610e81565b80156104595780601f1061042e57610100808354040283529160200191610459565b820191906000526020600020905b81548152906001019060200180831161043c57829003601f168201915b5050509183525050600182015460ff161515602082015260029091015460409091015292915050565b60606000805480602002602001604051908101604052809291908181526020016000905b8282101561059f5760008481526020908190206040805160a081018252600586029092018054835260018101546001600160a01b0316938301939093526002830154908201526003820154606082015260048201805491929160808401919061050e90610e81565b80601f016020809104026020016040519081016040528092919081815260200182805461053a90610e81565b80156105875780601f1061055c57610100808354040283529160200191610587565b820191906000526020600020905b81548152906001019060200180831161056a57829003601f168201915b505050505081525050815260200190600101906104a6565b50505050905090565b6002602052600090815260409020805481906105c390610e81565b80601f01602080910402602001604051908101604052809291908181526020018280546105ef90610e81565b801561063c5780601f106106115761010080835404028352916020019161063c565b820191906000526020600020905b81548152906001019060200180831161061f57829003601f168201915b505050506001830154600290930154919260ff1691905083565b6003818154811061066657600080fd5b6000918252602090912001546001600160a01b0316905081565b6001600160a01b03811660009081526002602052604090206001015460609060ff166106e75760405162461bcd60e51b815260206004820152601660248201527510dbdb5c185b9e481b9bdd081c9959da5cdd195c995960521b604482015260640161024e565b6001600160a01b0382166000908152600260205260409020805461070a90610e81565b80601f016020809104026020016040519081016040528092919081815260200182805461073690610e81565b80156107835780601f1061075857610100808354040283529160200191610783565b820191906000526020600020905b81548152906001019060200180831161076657829003601f168201915b50505050509050919050565b6000818154811061079f57600080fd5b6000918252602090912060059091020180546001820154600283015460038401546004850180549496506001600160a01b039093169491939092906107e390610e81565b80601f016020809104026020016040519081016040528092919081815260200182805461080f90610e81565b801561085c5780601f106108315761010080835404028352916020019161085c565b820191906000526020600020905b81548152906001019060200180831161083f57829003601f168201915b5050505050905085565b3360009081526002602052604081206001015460ff166108c15760405162461bcd60e51b815260206004820152601660248201527510dbdb5c185b9e481b9bdd081c9959da5cdd195c995960521b604482015260640161024e565b33600090815260026020526040812080546108db90610e81565b80601f016020809104026020016040519081016040528092919081815260200182805461090790610e81565b80156109545780601f1061092957610100808354040283529160200191610954565b820191906000526020600020905b81548152906001019060200180831161093757829003601f168201915b5050505050905060005b8351811015610aa45760006040518060a001604052806001548152602001336001600160a01b0316815260200186848151811061099d5761099d610fca565b60209081029190910181015182524282820152604091820186905283546001808201865560009586529482902084516005909202019081559083015193810180546001600160a01b0319166001600160a01b039095169490941790935581015160028301556060810151600383015560808101519091906004820190610a239082610f0a565b505050838181518110610a3857610a38610fca565b602002602001015160026000336001600160a01b03166001600160a01b031681526020019081526020016000206002016000828254610a779190610ff6565b909155505060018054906000610a8c8361100f565b91905055508080610a9c9061100f565b91505061095e565b50336001600160a01b03167fb7970c7b87053dd44001711ebb0a1188dbb5bffaa5e767ec2e32be5f48473dbf84514284604051610ae393929190611028565b60405180910390a2338342604051602001610b0093929190611050565b60405160208183030381529060405280519060200120915050919050565b634e487b7160e01b600052604160045260246000fd5b604051601f8201601f1916810167ffffffffffffffff81118282101715610b5d57610b5d610b1e565b604052919050565b60006020808385031215610b7857600080fd5b823567ffffffffffffffff80821115610b9057600080fd5b818501915085601f830112610ba457600080fd5b813581811115610bb657610bb6610b1e565b610bc8601f8201601f19168501610b34565b91508082528684828501011115610bde57600080fd5b8084840185840137600090820190930192909252509392505050565b600060208284031215610c0c57600080fd5b81356001600160a01b0381168114610c2357600080fd5b9392505050565b6000815180845260005b81811015610c5057602081850181015186830182015201610c34565b506000602082860101526020601f19601f83011685010191505092915050565b602081526000825160606020840152610c8c6080840182610c2a565b9050602084015115156040840152604084015160608401528091505092915050565b60006020808301818452808551808352604092508286019150828160051b87010184880160005b83811015610d3e57888303603f19018552815180518452878101516001600160a01b03168885015286810151878501526060808201519085015260809081015160a091850182905290610d2a81860183610c2a565b968901969450505090860190600101610cd5565b509098975050505050505050565b606081526000610d5f6060830186610c2a565b93151560208301525060400152919050565b600060208284031215610d8357600080fd5b5035919050565b602081526000610c236020830184610c2a565b85815260018060a01b038516602082015283604082015282606082015260a060808201526000610dd060a0830184610c2a565b979650505050505050565b60006020808385031215610dee57600080fd5b823567ffffffffffffffff80821115610e0657600080fd5b818501915085601f830112610e1a57600080fd5b813581811115610e2c57610e2c610b1e565b8060051b9150610e3d848301610b34565b8181529183018401918481019088841115610e5757600080fd5b938501935b83851015610e7557843582529385019390850190610e5c565b98975050505050505050565b600181811c90821680610e9557607f821691505b602082108103610eb557634e487b7160e01b600052602260045260246000fd5b50919050565b601f821115610f0557600081815260208120601f850160051c81016020861015610ee25750805b601f850160051c820191505b81811015610f0157828155600101610eee565b5050505b505050565b815167ffffffffffffffff811115610f2457610f24610b1e565b610f3881610f328454610e81565b84610ebb565b602080601f831160018114610f6d5760008415610f555750858301515b600019600386901b1c1916600185901b178555610f01565b600085815260208120601f198616915b82811015610f9c57888601518255948401946001909101908401610f7d565b5085821015610fba5787850151600019600388901b60f8161c191681555b5050505050600190811b01905550565b634e487b7160e01b600052603260045260246000fd5b634e487b7160e01b600052601160045260246000fd5b8082018082111561100957611009610fe0565b92915050565b60006001820161102157611021610fe0565b5060010190565b8381528260208201526060604082015260006110476060830184610c2a565b95945050505050565b6bffffffffffffffffffffffff198460601b1681526000601482018451602080870160005b8381101561109157815185529382019390820190600101611075565b50509482525090920194935050505056fea2646970667358221220365d0066c2466c245743eeae6d595d1e27831eb19f0af4383a76d8061c4d38f364736f6c63430008110033",
  "linkReferences": {},
  "deployedLinkReferences": {}
}